{"abi":[{"type":"constructor","inputs":[{"name":"_charityAddress","type":"address","internalType":"address"},{"name":"_emailVerifier","type":"address","internalType":"address"}],"stateMutability":"nonpayable"},{"type":"function","name":"charityAddress","inputs":[],"outputs":[{"name":"","type":"address","internalType":"address"}],"stateMutability":"view"},{"type":"function","name":"claimTokens","inputs":[{"name":"lockId","type":"uint256","internalType":"uint256"}],"outputs":[],"stateMutability":"nonpayable"},{"type":"function","name":"createLock","inputs":[{"name":"target","type":"string","internalType":"string"},{"name":"proofType","type":"string","internalType":"string"},{"name":"deadline","type":"uint256","internalType":"uint256"}],"outputs":[],"stateMutability":"payable"},{"type":"function","name":"locks","inputs":[{"name":"","type":"uint256","internalType":"uint256"}],"outputs":[{"name":"owner","type":"address","internalType":"address"},{"name":"target","type":"string","internalType":"string"},{"name":"amount","type":"uint256","internalType":"uint256"},{"name":"deadline","type":"uint256","internalType":"uint256"},{"name":"proofType","type":"string","internalType":"string"},{"name":"completed","type":"bool","internalType":"bool"},{"name":"claimed","type":"bool","internalType":"bool"}],"stateMutability":"view"},{"type":"function","name":"nextLockId","inputs":[],"outputs":[{"name":"","type":"uint256","internalType":"uint256"}],"stateMutability":"view"},{"type":"function","name":"proofVerifiers","inputs":[{"name":"","type":"string","internalType":"string"}],"outputs":[{"name":"","type":"address","internalType":"address"}],"stateMutability":"view"},{"type":"function","name":"sendToCharity","inputs":[{"name":"lockId","type":"uint256","internalType":"uint256"}],"outputs":[],"stateMutability":"nonpayable"},{"type":"function","name":"setProofVerifier","inputs":[{"name":"proofType","type":"string","internalType":"string"},{"name":"verifier","type":"address","internalType":"address"}],"outputs":[],"stateMutability":"nonpayable"},{"type":"function","name":"verifyProof","inputs":[{"name":"lockId","type":"uint256","internalType":"uint256"},{"name":"proof","type":"tuple","internalType":"struct Proof","components":[{"name":"seal","type":"tuple","internalType":"struct Seal","components":[{"name":"verifierSelector","type":"bytes4","internalType":"bytes4"},{"name":"seal","type":"bytes32[8]","internalType":"bytes32[8]"},{"name":"mode","type":"uint8","internalType":"enum ProofMode"}]},{"name":"callGuestId","type":"bytes32","internalType":"bytes32"},{"name":"length","type":"uint256","internalType":"uint256"},{"name":"callAssumptions","type":"tuple","internalType":"struct CallAssumptions","components":[{"name":"proverContractAddress","type":"address","internalType":"address"},{"name":"functionSelector","type":"bytes4","internalType":"bytes4"},{"name":"settleBlockNumber","type":"uint256","internalType":"uint256"},{"name":"settleBlockHash","type":"bytes32","internalType":"bytes32"}]}]}],"outputs":[],"stateMutability":"nonpayable"},{"type":"event","name":"LockCreated","inputs":[{"name":"lockId","type":"uint256","indexed":true,"internalType":"uint256"},{"name":"owner","type":"address","indexed":true,"internalType":"address"},{"name":"target","type":"string","indexed":false,"internalType":"string"},{"name":"amount","type":"uint256","indexed":false,"internalType":"uint256"},{"name":"deadline","type":"uint256","indexed":false,"internalType":"uint256"}],"anonymous":false},{"type":"event","name":"ProofVerified","inputs":[{"name":"lockId","type":"uint256","indexed":true,"internalType":"uint256"}],"anonymous":false},{"type":"event","name":"TokensClaimed","inputs":[{"name":"lockId","type":"uint256","indexed":true,"internalType":"uint256"}],"anonymous":false},{"type":"event","name":"TokensToCharity","inputs":[{"name":"lockId","type":"uint256","indexed":true,"internalType":"uint256"}],"anonymous":false}],"bytecode":{"object":"0x608060405234801561001057600080fd5b5060405161107238038061107283398101604081905261002f9161009b565b600280546001600160a01b039384166001600160a01b0319918216179091556040805164195b585a5b60da1b815260036005820152905190819003602501902080549290931691161790556100ce565b80516001600160a01b038116811461009657600080fd5b919050565b600080604083850312156100ae57600080fd5b6100b78361007f565b91506100c56020840161007f565b90509250929050565b610f95806100dd6000396000f3fe6080604052600436106100865760003560e01c806395e52bc31161005957806395e52bc314610109578063afcf2fc414610129578063cf0d4bb814610161578063f4dadc6114610181578063fe156d45146101b457600080fd5b80631fb8d58d1461008b57806346e04a2f146100ad5780636518a0b3146100cd5780638380a798146100f6575b600080fd5b34801561009757600080fd5b506100ab6100a63660046109b4565b6101f5565b005b3480156100b957600080fd5b506100ab6100c83660046109b4565b610363565b3480156100d957600080fd5b506100e360015481565b6040519081526020015b60405180910390f35b6100ab610104366004610a70565b6104c4565b34801561011557600080fd5b506100ab610124366004610af9565b6106f7565b34801561013557600080fd5b50600254610149906001600160a01b031681565b6040516001600160a01b0390911681526020016100ed565b34801561016d57600080fd5b506100ab61017c366004610b47565b61073b565b34801561018d57600080fd5b506101a161019c3660046109b4565b610859565b6040516100ed9796959493929190610bd1565b3480156101c057600080fd5b506101496101cf366004610c2f565b80516020818301810180516003825292820191909301209152546001600160a01b031681565b60008181526020819052604090206003810154421161024f5760405162461bcd60e51b81526020600482015260116024820152704e6f74207061737420646561646c696e6560781b60448201526064015b60405180910390fd5b600581015460ff16156102985760405162461bcd60e51b8152602060048201526011602482015270105b1c9958591e4818dbdb5c1b195d1959607a1b6044820152606401610246565b6005810154610100900460ff16156102e45760405162461bcd60e51b815260206004820152600f60248201526e105b1c9958591e4818db185a5b5959608a1b6044820152606401610246565b60058101805461ff00191661010017905560028054908201546040516001600160a01b039092169181156108fc0291906000818181858888f19350505050158015610333573d6000803e3d6000fd5b5060405182907fc9bb206f941dbcd59d025cdb37b20738f5545d74d2881104197973ac694072d490600090a25050565b600081815260208190526040902080546001600160a01b031633146103b65760405162461bcd60e51b81526020600482015260096024820152682737ba1037bbb732b960b91b6044820152606401610246565b600581015460ff166103fa5760405162461bcd60e51b815260206004820152600d60248201526c139bdd0818dbdb5c1b195d1959609a1b6044820152606401610246565b6005810154610100900460ff16156104465760405162461bcd60e51b815260206004820152600f60248201526e105b1c9958591e4818db185a5b5959608a1b6044820152606401610246565b60058101805461ff001916610100179055805460028201546040516001600160a01b039092169181156108fc0291906000818181858888f19350505050158015610494573d6000803e3d6000fd5b5060405182907fcff788b65ecc4ee1e06954505390b4d87e536462f29c25f160ab35cdb6ef6aea90600090a25050565b600034116105095760405162461bcd60e51b815260206004820152601260248201527109aeae6e840d8dec6d640e6dedaca408aa8960731b6044820152606401610246565b4281116105585760405162461bcd60e51b815260206004820152601a60248201527f446561646c696e65206d75737420626520696e206675747572650000000000006044820152606401610246565b60006001600160a01b03166003836040516105739190610c6c565b908152604051908190036020019020546001600160a01b0316036105ce5760405162461bcd60e51b8152602060048201526012602482015271496e76616c69642070726f6f66207479706560701b6044820152606401610246565b60018054600091826105df83610c88565b909155506040805160e081018252338152602080820188815234838501526060830187905260808301889052600060a0840181905260c0840181905285815291829052929020815181546001600160a01b0319166001600160a01b0390911617815591519293509160018201906106569082610d3a565b5060408201516002820155606082015160038201556080820151600482019061067f9082610d3a565b5060a08201516005909101805460c09093015115156101000261ff00199215159290921661ffff1990931692909217179055604051339082907f4730c23bb7452c62676be66cfc57cdf6e29b5cbc702b34a6a66d1f6b58f154a7906106e990889034908890610dfa565b60405180910390a350505050565b806003836040516107089190610c6c565b90815260405190819003602001902080546001600160a01b03929092166001600160a01b03199092169190911790555050565b6000828152602081905260409020600581015460ff16156107925760405162461bcd60e51b8152602060048201526011602482015270105b1c9958591e4818dbdb5c1b195d1959607a1b6044820152606401610246565b60006003826004016040516107a79190610e1f565b90815260405190819003602001812054835463a7ddb0b760e01b83526001600160a01b039182169350839263a7ddb0b7926107e9928892911690600401610ead565b60006040518083038186803b15801561080157600080fd5b505afa158015610815573d6000803e3d6000fd5b50505060058301805460ff191660011790555060405184907f4eb5ee08f6bd1352ed7b0dac0ee5e5b7cb984b0477d694d9db613b705f47f2ab90600090a250505050565b600060208190529081526040902080546001820180546001600160a01b03909216929161088590610caf565b80601f01602080910402602001604051908101604052809291908181526020018280546108b190610caf565b80156108fe5780601f106108d3576101008083540402835291602001916108fe565b820191906000526020600020905b8154815290600101906020018083116108e157829003601f168201915b50505050509080600201549080600301549080600401805461091f90610caf565b80601f016020809104026020016040519081016040528092919081815260200182805461094b90610caf565b80156109985780601f1061096d57610100808354040283529160200191610998565b820191906000526020600020905b81548152906001019060200180831161097b57829003601f168201915b5050506005909301549192505060ff8082169161010090041687565b6000602082840312156109c657600080fd5b5035919050565b634e487b7160e01b600052604160045260246000fd5b600082601f8301126109f457600080fd5b813567ffffffffffffffff80821115610a0f57610a0f6109cd565b604051601f8301601f19908116603f01168101908282118183101715610a3757610a376109cd565b81604052838152866020858801011115610a5057600080fd5b836020870160208301376000602085830101528094505050505092915050565b600080600060608486031215610a8557600080fd5b833567ffffffffffffffff80821115610a9d57600080fd5b610aa9878388016109e3565b94506020860135915080821115610abf57600080fd5b50610acc868287016109e3565b925050604084013590509250925092565b80356001600160a01b0381168114610af457600080fd5b919050565b60008060408385031215610b0c57600080fd5b823567ffffffffffffffff811115610b2357600080fd5b610b2f858286016109e3565b925050610b3e60208401610add565b90509250929050565b600080828403610220811215610b5c57600080fd5b83359250610200601f1982011215610b7357600080fd5b506020830190509250929050565b60005b83811015610b9c578181015183820152602001610b84565b50506000910152565b60008151808452610bbd816020860160208601610b81565b601f01601f19169290920160200192915050565b6001600160a01b038816815260e060208201819052600090610bf590830189610ba5565b8760408401528660608401528281036080840152610c138187610ba5565b94151560a0840152505090151560c09091015295945050505050565b600060208284031215610c4157600080fd5b813567ffffffffffffffff811115610c5857600080fd5b610c64848285016109e3565b949350505050565b60008251610c7e818460208701610b81565b9190910192915050565b600060018201610ca857634e487b7160e01b600052601160045260246000fd5b5060010190565b600181811c90821680610cc357607f821691505b602082108103610ce357634e487b7160e01b600052602260045260246000fd5b50919050565b601f821115610d35576000816000526020600020601f850160051c81016020861015610d125750805b601f850160051c820191505b81811015610d3157828155600101610d1e565b5050505b505050565b815167ffffffffffffffff811115610d5457610d546109cd565b610d6881610d628454610caf565b84610ce9565b602080601f831160018114610d9d5760008415610d855750858301515b600019600386901b1c1916600185901b178555610d31565b600085815260208120601f198616915b82811015610dcc57888601518255948401946001909101908401610dad565b5085821015610dea5787850151600019600388901b60f8161c191681555b5050505050600190811b01905550565b606081526000610e0d6060830186610ba5565b60208301949094525060400152919050565b6000808354610e2d81610caf565b60018281168015610e455760018114610e5a57610e89565b60ff1984168752821515830287019450610e89565b8760005260208060002060005b85811015610e805781548a820152908401908201610e67565b50505082870194505b50929695505050505050565b80356001600160e01b031981168114610af457600080fd5b61022081016001600160e01b031980610ec586610e95565b1683526101006020860160208501376101208086013560028110610ee857600080fd5b90840152610140858101359084015261016080860135908401526101806001600160a01b03610f18828801610add565b16908401526101a081610f2c878301610e95565b1690840152506101c084810135908301526101e080850135908301526001600160a01b038316610200830152939250505056fea26469706673582212209a37639854ca4a0a70ff7cad65e8cd4191b8a903ae2d37b03cf241933b79819664736f6c63430008170033","linkReferences":{}},"methodIdentifiers":{"charityAddress()":"afcf2fc4","claimTokens(uint256)":"46e04a2f","createLock(string,string,uint256)":"8380a798","locks(uint256)":"f4dadc61","nextLockId()":"6518a0b3","proofVerifiers(string)":"fe156d45","sendToCharity(uint256)":"1fb8d58d","setProofVerifier(string,address)":"95e52bc3","verifyProof(uint256,((bytes4,bytes32[8],uint8),bytes32,uint256,(address,bytes4,uint256,bytes32)))":"cf0d4bb8"},"id":57}